:020000040800F2
:1000000070040020D50000088F0700088B07000847
:1000100000000000000000000000000000000000E0
:100020000000000000000000000000000B080008B5
:100030000000000000000000090800080D0800088A
:10004000000000000000000000000000E7000008C1
:10005000E7000008E7000008E7000008E7000008E4
:100060000000000000000000000000000000000090
:10007000E7000008E7000008E700000800000000B3
:1000800000000000E700000800000000E700000892
:10009000000000000000000000000000E700000871
:1000A00000000000E700000800000000E700000872
:1000B0000000000000000000000000000000000040
:1000C0000348854600F02AF800480047C90A00089E
:1000D000700400200448804704480047FEE7FEE71C
:1000E000FEE7FEE7FEE7FEE715080008C10000088E
:1000F00030B50B46014600202022012409E00D46C0
:10010000D5409D4205D31D469540491B2546954047
:1001100040191546521E002DF1DC30BD064C01255C
:10012000064E05E0E36807CC2B430C3C984710349F
:10013000B442F7D3FFF7C8FFC00B0008E00B00087C
:1001400000BFFEE708B505494143009100BF00BF6D
:1001500000994A1E00920029F9D108BDB80B000091
:1001600070B503460022CBE0012696400C6834406F
:10017000002C71D04D68022D02D04D68122D15D182
:10018000D508AE001D462035A8595507EE0E0F259F
:10019000B5400646AE4330465607F60E0D69B540EB
:1001A0002843D508AD001E46203670511868560009
:1001B0000325B5400646AE4330460D79AD07AD0F79
:1001C0005600B540284318604D68012D08D04D6891
:1001D000022D05D04D68112D02D04D68122D18D179
:1001E000986856000325B5400646AE433046560093
:1001F000CD68B5402843986058680125954006466B
:10020000AE43304610264D6835402D0995402843B1
:100210005860D86856000325B5400646AE433046C0
:1002200056008D68B5402843D860012636074D68D2
:100230003540B54263D1354D9608B600A8599507AB
:10024000EE0E0F25B5400646AE43304605252D0778
:10025000AB4202D1002506E051E02D4DAB4201D169
:10026000012500E002259607F60EB5402843274DEC
:100270009608B600A851254D203528680546A543A7
:100280002846012636044D683540B54202D1054660
:10029000254328461D4D2035286068680546A5433E
:1002A0002846012676044D683540B54202D1054600
:1002B00025432846154D20356860144D603D28685B
:1002C0000546A5432846012636054D683540B5420A
:1002D00002D10546254328460C4D603D28606868DC
:1002E0000546A5432846012676054D683540B542AA
:1002F00002D1054625432846044D603D6860521CE6
:100300000D68D540002D00D02EE770BD601802406A
:1003100000040050014800687047000020000020E1
:10032000034800680349096840180149086070479C
:10033000200000202800002010B50024032000F039
:1003400009F8002801D0012401E000F033F820462C
:1003500010BD0000F8B504460025134800680028C9
:100360001ED0114801687D20C000FFF7C1FE07467E
:1003700039460E480068FFF7BBFE064600F06CF8F1
:1003800000280BD1042C07D200222146401E00F089
:100390003FF80748046004E0012502E0012500E081
:1003A00001252846F8BD000028000020000000209C
:1003B0002400002008B500BF0E4800680121084352
:1003C0000C49086008460068C007C00F009000BFD5
:1003D00000BF00BF07484038C06B89050843054986
:1003E0004039C8630846C06B09040840009000BF4C
:1003F00000BF08BD4010024000BFC206D20E01215E
:100400009140024A116000BF7047000000E100E027
:1004100070B504460D4616462946204600F0B8F948
:1004200070BD000001480068704700000000002017
:1004300000B5FFF7F7FF064989680722120311404C
:10044000090B8900034A515CC906C90EC84000BDAA
:1004500000100240800B000870B504462546681E57
:100460000949884201D901200CE0681E074948610A
:100470000321081F00F08CF900200449886107203F
:100480000861002070BD0000FFFFFF0000E000E0F9
:1004900010B50446002C01D1012010BDA069002830
:1004A00000D000E000BF3D20005D002805D1002104
:1004B0003C200155204600F031F824213D20015513
:1004C0002068C0680121490388432168C86020462C
:1004D00000F0E0F9206A002802D0204600F0BEF9C2
:1004E000206800690121C9028843216808612068E9
:1004F000406908218843216848612068C06801215B
:10050000490308432168C8600020206420213D2061
:1005100001553E2001550020BFE7000010B586B010
:10052000044600BF1E48406B022108431C49486333
:100530000846406B02210840009000BF00BF00BF8A
:1005400017484030006849030843154940310860A6
:1005500008460068012189030840009000BF00BFE1
:1005600010200190022002900120039002200490AC
:100570000120059001A90B48FFF7F2FD2020019012
:100580000120059001A90748FFF7EAFD012200219B
:100590001B20FFF73DFF1B20FFF72EFF06B010BD0D
:1005A0000010024000040050FFB583B004460D4621
:1005B0001746002001903E20005D202864D1002DC8
:1005C00001D0002F02D1012007B0F0BD01210903A5
:1005D000A068884208D12069002805D1E807C00F2B
:1005E000002801D00120EFE700BF3C20005D01287A
:1005F00001D10220E8E701213C20015500BF002085
:10060000206422213E200155FFF784FE01902787B8
:10061000678701210903A068884205D12069002865
:1006200002D10026029502E02E46002002901EE034
:1006300006980090002220212046019B00F0FCF942
:10064000002801D00320BFE7002E09D120684068B0
:10065000C105C90D029801800298801C029003E038
:10066000206840683070761C608F401E6087608F05
:100670000028DDD120213E20015500BF00213C2073
:10068000015500BF00209FE702209DE7FFB583B022
:1006900004460D461746002001903D20005D2028AD
:1006A00071D1002D01D0002F02D1012007B0F0BD83
:1006B00001210903A068884208D12069002805D1DA
:1006C000E807C00F002801D00120EFE700BF3C2061
:1006D000005D012801D10220E8E701213C200155FD
:1006E00000BF0020206421213D200155FFF712FEAC
:1006F00001902786678601210903A068884205D1F9
:100700002069002802D10026029502E02E46002032
:1007100002901EE006980090002280212046019B56
:1007200000F08AF9002801D00320BFE7002E09D18C
:1007300002980088C005C00D216848600298801C9E
:10074000029003E0307821684860761C608E401E7D
:100750006086608E0028DDD106980090002240213E
:100760002046019B00F068F9002801D003209DE796
:1007700020213D20015500BF00213C20015500BF34
:10078000002093E7FFE7022090E700BFFEE77047F5
:1007900010B5002819DA1A4A03071B0F083B9B08FB
:1007A0009B00D2588307DC0EFF23A3409A438B079C
:1007B0001B0E8407E40EA3401A43114B0407240FB9
:1007C000083CA408A4001A5118E00E4A03231B0297
:1007D000D21883089B00D2588307DC0EFF23A34066
:1007E0009A438B071B0E8407E40EA3401A43054B64
:1007F000032424021B198408A4001A5110BD000010
:100800001CED00E000E100E07047704710B5FFF715
:1008100087FD10BD10B50D484068000C00040C4960
:100820000968084309494860084640680949084082
:100830000749403189880904084304494860C803CE
:10084000054988606420FFF77DFC10BD0010024060
:100850000001FF1FFFFF00FE00ED00E04022016AE3
:100860001140002915D00168496992019143426AFB
:1008700011430268516101221203416A914208D179
:1008800001684969032252039143826A1143026855
:1008900051617047FEB50446206800690121490393
:1008A0008843E1680843216808612169A06808431A
:1008B0006169084302902068C0685E490840029957
:1008C00008432168C860E0690290206840690121FE
:1008D000C902884302990843216848612068406939
:1008E000032109028843A169084321684861012165
:1008F000C902E06988424ED1FFF79AFD0546626859
:10090000510019226A431046FFF7F2FB06466421A4
:10091000FFF7EEFB07016268510019226A43104697
:10092000FFF7E6FB06466268510019226A4310464B
:10093000FFF7DEFB64210090FFF7DAFB64214843F8
:10094000301AC00032300190FFF7D2FBF821084086
:1009500040003F186268510019226A431046FFF7B1
:10096000C7FB06466268510019226A431046FFF72A
:10097000BFFB64210090FFF7BBFB64214843301AA2
:10098000C00032300190FFF7B3FB4007400F38182A
:10099000216888604CE0FFF74BFD054662689100D6
:1009A00019226A431046FFF7A3FB06466421FFF7AE
:1009B0009FFB07016268910019226A431046FFF706
:1009C00097FB06466268910019226A431046FFF7BA
:1009D0008FFB64210090FFF78BFB64214843301AA2
:1009E000000132300190FFF783FBF02108403F18EF
:1009F0006268910019226A431046FFF779FB0646A8
:100A00006268910019226A431046FFF771FB642166
:100A10000090FFF76DFB64214843301A000132302B
:100A20000190FFF765FB0007000F38182168886008
:100A3000FEBD0000F3E9FFFFFFB581B004460D469F
:100A400017460A9E24E0701C002821D0002E05D0F5
:100A5000FFF760FC0499401AB04219D92068C068B9
:100A6000FF21A13188432168C8602068406940089F
:100A700040002168486120213D2001553E2001555C
:100A800000BF00213C20015500BF032005B0F0BD90
:100A9000206800682840A84201D1012000E0002021
:100AA000B842D0D00020F1E702E008C8121F08C108
:100AB000002AFAD170477047002001E001C1121FDF
:100AC000002AFBD170470000FFF736FC1748184991
:100AD0000860E12040024860002115488160C16043
:100AE000016181610C214161FFF7D2FC114B0C22A5
:100AF00011490F48FFF7CAFD002801D0FFF720FB7E
:100B000013E00C4B0C220D490948FFF74DFD00285E
:100B100001D0FFF715FB074B0C2208490448FFF7EB
:100B2000B5FD002801D0FFF70BFBEAE700380140D4
:100B30002C0000208813000004000020100000207A
:100B400000000000000000000000000000000000A5
:100B50000000000000000000000000000000000095
:100B6000010000000200000003000000040000007B
:100B70000600000007000000080000000900000057
:100B80000000000000000000000000000000000065
:100B9000010000000200000003000000040000004B
:100BA0000000000000000000000000000000000045
:100BB00000366E0100000000000000000000000090
:100BC000E00B0008000000202C000000A80A00082C
:100BD0000C0C00082C00002044040000B80A000897
:100BE00000366E010102030405060708090A0B0C12
:100BF000FFFFFFFFFFFFFFFFFFFFFFFF0000000001
:0C0C0000000000000400000001000000E3
:04000005080000C12E
:00000001FF
