:020000040800F2
:10000000B8040020D50000082D09000829090008BF
:1000100000000000000000000000000000000000E0
:10002000000000000000000000000000AB09000814
:100030000000000000000000A9090008AD09000848
:10004000000000000000000000000000E7000008C1
:10005000E7000008E7000008E7000008E7000008E4
:100060000000000000000000000000000000000090
:10007000E7000008E7000008E700000800000000B3
:1000800000000000E700000800000000E700000892
:10009000000000000000000000000000E700000871
:1000A00000000000E700000800000000810D0008CB
:1000B0000000000000000000000000000000000040
:1000C0000348854600F02AF8004800473D0F000825
:1000D000B80400200448804704480047FEE7FEE7D4
:1000E000FEE7FEE7FEE7FEE7B5090008C1000008ED
:1000F00030B50B46014600202022012409E00D46C0
:10010000D5409D4205D31D469540491B2546954047
:1001100040191546521E002DF1DC30BD064C01255C
:10012000064E05E0E36807CC2B430C3C984710349F
:10013000B442F7D3FFF7C8FF0410000824100008EA
:1001400000BFFEE708B505494143009100BF00BF6D
:1001500000994A1E00920029F9D108BDB80B000091
:1001600070B503460022CBE0012696400C6834406F
:10017000002C71D04D68022D02D04D68122D15D182
:10018000D508AE001D462035A8595507EE0E0F259F
:10019000B5400646AE4330465607F60E0D69B540EB
:1001A0002843D508AD001E46203670511868560009
:1001B0000325B5400646AE4330460D79AD07AD0F79
:1001C0005600B540284318604D68012D08D04D6891
:1001D000022D05D04D68112D02D04D68122D18D179
:1001E000986856000325B5400646AE433046560093
:1001F000CD68B5402843986058680125954006466B
:10020000AE43304610264D6835402D0995402843B1
:100210005860D86856000325B5400646AE433046C0
:1002200056008D68B5402843D860012636074D68D2
:100230003540B54263D1354D9608B600A8599507AB
:10024000EE0E0F25B5400646AE43304605252D0778
:10025000AB4202D1002506E051E02D4DAB4201D169
:10026000012500E002259607F60EB5402843274DEC
:100270009608B600A851254D203528680546A543A7
:100280002846012636044D683540B54202D1054660
:10029000254328461D4D2035286068680546A5433E
:1002A0002846012676044D683540B54202D1054600
:1002B00025432846154D20356860144D603D28685B
:1002C0000546A5432846012636054D683540B5420A
:1002D00002D10546254328460C4D603D28606868DC
:1002E0000546A5432846012676054D683540B542AA
:1002F00002D1054625432846044D603D6860521CE6
:100300000D68D540002D00D02EE770BD601802406A
:100310000004005001480068704700001C000020E5
:10032000034800680349096840180149086070479C
:100330001C0000202400002010B50024032000F041
:1003400009F8002801D0012401E000F033F820462C
:1003500010BD0000F8B504460025134800680028C9
:100360001ED0114801687D20C000FFF7C1FE07467E
:1003700039460E480068FFF7BBFE064600F06CF8F1
:1003800000280BD1042C07D200222146401E00F089
:100390003FF80748046004E0012502E0012500E081
:1003A00001252846F8BD00002400002000000020A0
:1003B0002000002008B500BF0E4800680121084356
:1003C0000C49086008460068C007C00F009000BFD5
:1003D00000BF00BF07484038C06B89050843054986
:1003E0004039C8630846C06B09040840009000BF4C
:1003F00000BF08BD4010024000BFC206D20E01215E
:100400009140024A116000BF7047000000E100E027
:1004100070B504460D4616462946204600F088FA77
:1004200070BD000001480068704700000000002017
:1004300000B5FFF7F7FF064989680722120311404C
:10044000090B8900034A515CC906C90EC84000BDAA
:1004500000100240C40F000870B504462546681E0F
:100460000949884201D901200CE0681E074948610A
:100470000321081F00F05CFA00200449886107206E
:100480000861002070BD0000FFFFFF0000E000E0F9
:1004900010B50446216C02A000F07AFC10BD0000EB
:1004A00055617274204572726F722C204572726FA2
:1004B00072436F6465203D2025640D0A0000000032
:1004C000FEB50446206805682068C668206847694C
:1004D000002001902807000F0190019800280BD1FF
:1004E00020202840002807D020203040002803D0BA
:1004F000204600F0C0FAFEBD0198002859D0F80748
:10050000C00F002804D1FF2021303040002850D0F7
:10051000E807C00F002808D0FF2001303040002835
:1005200003D0206C012108432064042028400028C7
:1005300007D0F807C00F002803D0206C0221084321
:10054000206402202840002807D0F807C00F0028A8
:1005500003D0206C04210843206408202840002890
:1005600007D0F807C00F002803D0206C08210843EB
:100570002064206C00281BD020202840002806D0B2
:1005800020203040002802D0204600F074FA206C71
:1005900008210840002806D0204600F04BFA2046EB
:1005A000FFF776FF04E02046FFF772FF002020648B
:1005B000A1E710202840002811D01020304000284A
:1005C0000DD000BF002000902068006800902068D7
:1005D0004068009000BF00BF204600F01AF880205D
:1005E0002840002807D080203040002803D0204633
:1005F00000F058FB7FE740202840002807D040202B
:100600003040002803D0204600F025FA73E700BFF1
:1006100071E7704710B50446002C01D1012010BDD0
:10062000A069002800D000E000BF3D20005D002848
:1006300005D100213C200155204600F031F824214D
:100640003D2001552068C068012149038843216885
:10065000C860204600F054FA206A002802D02046E4
:1006600000F0CCF9206800690121C90288432168A3
:100670000861206840690821884321684861206832
:10068000C0680121490308432168C8600020206434
:1006900020213D2001553E2001550020BFE70000EC
:1006A00010B586B0044600BF1B48406B02210843CA
:1006B000194948630846406B02210840009000BF7A
:1006C00000BF00BF14484030006849030843124986
:1006D0004031086008460068012189030840009005
:1006E00000BF00BFC02001900220029001200390B3
:1006F000022004900120059001A905200007FFF7C2
:100700002FFD012200211B20FFF782FE1B20FFF797
:1007100073FE06B010BD00000010024010B5034685
:100720003E20C05C202832D1002901D0002A01D10E
:10073000012010BD00BF3C20C05C012801D1022077
:10074000F7E701243C20C45400BF59631A875A8735
:100750000020186422243E20C45400BF00243C2002
:10076000C45400BF1868C068FF24013420431C68CB
:10077000E06018684069012420431C6860611868C3
:10078000C068202420431C68E0600020D1E70220DC
:10079000CFE7000010B504460C220449204600F0C3
:1007A00086F8002801D0FFF7CBFC10BD1000002018
:1007B000FFB583B004460D461746002001903D204A
:1007C000005D202871D1002D01D0002F02D1012021
:1007D00007B0F0BD01210903A068884208D1206953
:1007E000002805D1E807C00F002801D00120EFE75D
:1007F00000BF3C20005D012801D10220E8E7012173
:100800003C20015500BF0020206421213D200155DE
:10081000FFF780FD01902786678601210903A06804
:10082000884205D12069002802D10026029502E005
:100830002E46002002901EE00698009000228021A3
:100840002046019B00F063FA002801D00320BFE797
:10085000002E09D102980088C005C00D21684860AB
:100860000298801C029003E0307821684860761C72
:10087000608E401E6086608E0028DDD10698009054
:10088000002240212046019B00F041FA002801D0BF
:1008900003209DE720213D20015500BF00213C2081
:1008A000015500BF002093E7FFE7022090E710B555
:1008B00003463D20C05C202825D1002901D0002A14
:1008C00001D1012010BD00BF3C20C05C012801D136
:1008D0000220F7E701243C20C45400BFD9621A86E5
:1008E0005A860020186421243D20C45400BF0024EF
:1008F0003C20C45400BF1868C068802420431C6892
:10090000E0600020DEE70220DCE7000010B50446CE
:100910000C2204492046FFF701FF002801D0FFF711
:100920000FFC10BD1000002000BFFEE77047000064
:1009300010B5002819DA1A4A03071B0F083B9B0859
:100940009B00D2588307DC0EFF23A3409A438B07FA
:100950001B0E8407E40EA3401A43114B0407240F17
:10096000083CA408A4001A5118E00E4A03231B02F5
:10097000D21883089B00D2588307DC0EFF23A340C4
:100980009A438B071B0E8407E40EA3401A43054BC2
:10099000032424021B198408A4001A5110BD00006E
:1009A0001CED00E000E100E07047704710B5FFF774
:1009B000B7FC10BD10B50D484068000C00040C4990
:1009C00009680843094948600846406809490840E1
:1009D0000749403189880904084304494860C8032D
:1009E000054988606420FFF7ADFB10BD0010024090
:1009F0000001FF1FFFFF00FE00ED00E04022016A42
:100A00001140002915D00168496992019143426A59
:100A100011430268516101221203416A914208D1D7
:100A200001684969032252039143826A11430268B3
:100A3000516170470168C968FF2221329143026801
:100A4000D160016849694908490002685161202262
:100A50003E210A54704710B504462068C068402102
:100A600088432168C86020213D2001552046FFF7BA
:100A70004DFF002010BD70B504463E20005D2228C9
:100A80003BD101210903A06888420CD120690028CC
:100A900009D1656B20684068C005C00D2880606B77
:100AA000801C606306E020684068C1B2626B501C25
:100AB00060631170608F401E80B2608700281AD179
:100AC0002068C068202188432168C8602068C06809
:100AD000FF21013188432168C860206840694008CF
:100AE00040002168486120213E2001552046FFF743
:100AF00051FE002070BD0020FCE70220FAE7000054
:100B0000FEB5044620680069012149038843E16875
:100B10000843216808612169A068084361690843A6
:100B200002902068C0685E49084002990843216825
:100B3000C860E0690290206840690121C9028843C9
:100B4000029908432168486120684069032109022D
:100B50008843A1690843216848610121C902E0690D
:100B600088424ED1FFF764FC0546626851001922A5
:100B70006A431046FFF7BCFA06466421FFF7B8FA4D
:100B800007016268510019226A431046FFF7B0FA64
:100B900006466268510019226A431046FFF7A8FA18
:100BA00064210090FFF7A4FA64214843301AC00082
:100BB00032300190FFF79CFAF821084040003F18BE
:100BC0006268510019226A431046FFF791FA0646FF
:100BD0006268510019226A431046FFF789FA6421BE
:100BE0000090FFF785FA64214843301AC000323084
:100BF0000190FFF77DFA4007400F381821688860A0
:100C00004CE0FFF715FC05466268910019226A4323
:100C10001046FFF76DFA06466421FFF769FA0701EF
:100C20006268910019226A431046FFF761FA06468E
:100C30006268910019226A431046FFF759FA64214D
:100C40000090FFF755FA64214843301A0001323012
:100C50000190FFF74DFAF02108403F1862689100BB
:100C600019226A431046FFF743FA0646626891006C
:100C700019226A431046FFF73BFA64210090FFF700
:100C800037FA64214843301A000132300190FFF7EF
:100C90002FFA0007000F381821688860FEBD000099
:100CA000F3E9FFFF10B501463D20405C21282CD11F
:100CB000012424038868A0420CD10869002809D1C6
:100CC000CA6A1088C005C00D0C686060C86A801CC4
:100CD000C86206E0CB6A18780C686060C86A401C7D
:100CE000C862488E401E80B2488600280BD1086832
:100CF000C0688024A0430C68E0600868C068402495
:100D000020430C68E060002010BD0220FCE7FFB526
:100D100081B004460D4617460A9E24E0701C002848
:100D200021D0002E05D0FFF7F5FA0499401AB04201
:100D300019D92068C068FF21A13188432168C860A3
:100D400020684069400840002168486120213D201A
:100D500001553E20015500BF00213C20015500BF38
:100D6000032005B0F0BD206800682840A84201D1EA
:100D7000012000E00020B842D0D00020F1E70000C0
:100D800010B50248FFF79CFB10BD00002C000020AE
:100D90000FB410B503A9044B044A029800F018F8E8
:100DA00010BC08BC04B01847210F00082800002020
:100DB00002E008C8121F08C1002AFAD17047704724
:100DC000002001E001C1121F002AFBD17047000082
:100DD000FFB58DB00446002506E025280AD0109AFC
:100DE0000F999047641C6D1C20780028F5D1284687
:100DF00011B0F0BD00270121484A009700E00743E9
:100E0000641C23780846203B98401042F7D1207894
:100E10002E2817D1042007436078641C2A280CD19F
:100E20000E98641C02C800910E900BE000990A22F3
:100E3000514330394018641C009020780146303905
:100E40000929F3D920780028D1D0642808D069284E
:100E500006D075281ED0109A0F9990476D1C5BE044
:100E60000A200E99019001C90E91002802DA404231
:100E70002D2102E0390504D52B216A46117201218A
:100E800003E0F90704D02021F7E70BAE0B910DE04A
:100E90000021FAE70A200E99019001C90E91F7E7A7
:100EA0000199FFF725F93031761E31700028F7D10E
:100EB00003A8801B20300190780701D5009801E03D
:100EC000012000900199884201DD401A00E00020D5
:100ED0000027009006E002A8109AC05D0F99904785
:100EE0006D1C7F1C0B988742F5DB04E0109A3020C4
:100EF0000F9990476D1C0099481E00900029F5DC61
:100F000005E03078109A761C0F9990476D1C019976
:100F1000481E01900029F4DC641C65E709280100E3
:100F200013B50C467D23DB00012269460248FFF71A
:100F30003FFC00981CBD000070000020FFF7FCF98A
:100F40000D480E490860E1204002486000210B482E
:100F50008160C160016181610C214161FFF75AFB31
:100F60000C2207490548FFF7A2FC002801D0FFF733
:100F7000E7F800BFFEE70000003801402C00002029
:100F8000040000200000000000000000000000003D
:100F90000000000000000000000000000000000051
:100FA000000000000100000002000000030000003B
:100FB0000400000006000000070000000800000018
:100FC0000900000000000000000000000000000018
:100FD000000000000100000002000000030000000B
:100FE00004000000000000000000000000000000FD
:100FF0000000000000366E0100000000000000004C
:101000000000000024100008000000202C00000058
:10101000B00D0008501000082C0000208C040000C7
:10102000C00D000800366E01010203040506070822
:10103000090A0B0CFFFFFFFFFFFFFFFFFFFFFFFF92
:10104000000000000400000001000000000000009B
:04000005080000C12E
:00000001FF
