:020000040800F2
:1000000010040020D5000008C1040008BD04000849
:1000100000000000000000000000000000000000E0
:100020000000000000000000000000003F05000884
:1000300000000000000000003D0500084105000828
:10004000000000000000000000000000E7000008C1
:10005000E7000008E7000008E7000008E7000008E4
:100060000000000000000000000000000000000090
:10007000E7000008E7000008E700000800000000B3
:1000800000000000E700000800000000E700000892
:10009000000000000000000000000000E700000871
:1000A00000000000E700000800000000E700000872
:1000B0000000000000000000000000000000000040
:1000C0000348854600F02AF800480047AF050008BD
:1000D000100400200448804704480047FEE7FEE77C
:1000E000FEE7FEE7FEE7FEE749050008C10000085D
:1000F00030B50B46014600202022012409E00D46C0
:10010000D5409D4205D31D469540491B2546954047
:1001100040191546521E002DF1DC30BD064C01255C
:10012000064E05E0E36807CC2B430C3C984710349F
:10013000B442F7D3FFF7C8FFCC050008EC05000870
:1001400000B587B000BF0D48406B012108430B4943
:1001500048630846406BC007C00F019000BF00BF56
:10016000022002900120039004900220059002A931
:100170000520000700F028F807B000BD001002407D
:1001800008B505494143009100BF00BF00994A1ED0
:1001900000920029F9D108BDB80B000070B50446E3
:1001A00000F0F4F806462546681C002802D00548F1
:1001B00000682D1800BF00F0E9F8801BA842FAD3B0
:1001C00070BD00000C00002070B503460022CBE09B
:1001D000012696400C683440002C71D04D68022DE9
:1001E00002D04D68122D15D1D508AE001D46203520
:1001F000A8595507EE0E0F25B5400646AE433046CA
:100200005607F60E0D69B5402843D508AD001E46C9
:1002100020367051186856000325B5400646AE4397
:1002200030460D79AD07AD0F5600B5402843186034
:100230004D68012D08D04D68022D05D04D68112D57
:1002400002D04D68122D18D1986856000325B5408C
:100250000646AE4330465600CD68B5402843986008
:100260005868012595400646AE43304610264D6835
:1002700035402D09954028435860D868560003251D
:10028000B5400646AE43304656008D68B54028431B
:10029000D860012636074D683540B54263D1354DEB
:1002A0009608B600A8599507EE0E0F25B5400646EC
:1002B000AE43304605252D07AB4202D1002506E0AE
:1002C00051E02D4DAB4201D1012500E002259607FA
:1002D000F60EB5402843274D9608B600A851254D87
:1002E000203528680546A5432846012636044D6872
:1002F0003540B54202D10546254328461D4D2035DF
:10030000286068680546A5432846012676044D689E
:100310003540B54202D1054625432846154D2035C6
:100320006860144D603D28680546A54328460126AF
:1003300036054D683540B54202D10546254328466D
:100340000C4D603D286068680546A5432846012697
:1003500076054D683540B54202D10546254328460D
:10036000044D603D6860521C0D68D540002D00D0E2
:100370002EE770BD601802400004005042690A4038
:10038000002A01D0816200E0816170470148006865
:100390007047000004000020034800680349096812
:1003A0004018014908607047040000200C0000203C
:1003B00010B50024032000F009F8002801D0012422
:1003C00001E000F033F8204610BD0000F8B5044607
:1003D00000251348006800281ED0114801687D20C0
:1003E000C000FFF785FE074639460E480068FFF754
:1003F0007FFE064600F046F800280BD1042C07D2F9
:1004000000222146401E00F033F80748046004E053
:10041000012502E0012500E001252846F8BD000085
:100420000C000020000000200800002008B500BFDC
:100430000E480068012108430C490860084600681E
:10044000C007C00F009000BF00BF00BF0748403882
:10045000C06B8905084305494039C8630846C06B2D
:1004600009040840009000BF00BF08BD40100240D2
:1004700070B504460D4616462946204600F022F87F
:1004800070BD000070B504462546681E09498842C3
:1004900001D901200CE0681E074948610321081FAB
:1004A00000F010F80020044988610720086100204E
:1004B00070BD0000FFFFFF0000E000E000BFFEE7AE
:1004C0007047000010B5002819DA1A4A03071B0FFD
:1004D000083B9B089B00D2588307DC0EFF23A340F8
:1004E0009A438B071B0E8407E40EA3401A43114B5B
:1004F0000407240F083CA408A4001A5118E00E4A6F
:1005000003231B02D21883089B00D2588307DC0EFA
:10051000FF23A3409A438B071B0E8407E40EA340DE
:100520001A43054B032424021B198408A4001A5102
:1005300010BD00001CED00E000E100E070477047D6
:1005400010B5FFF729FF10BD10B50D484068000C2D
:1005500000040C4909680843094948600846406896
:10056000094908400749403189880904084304497A
:100570004860C803054988606420FFF701FE10BD8C
:10058000001002400001FF1FFFFF00FE00ED00E031
:1005900002E008C8121F08C1002AFAD1704770474C
:1005A000002001E001C1121F002AFBD17047FFF7B4
:1005B000FFFEFFF7C5FD07E0FA20FFF7EFFD022180
:1005C00005200007FFF7DAFEF6E70000EC0500085B
:1005D000000000201000000090050008FC05000845
:1005E0001000002000040000A005000800366E0185
:0C05F000000000000400000001000000FA
:04000005080000C12E
:00000001FF
